{
  "contractName": "BalanceSheet",
  "abi": [
    {
      "constant": false,
      "inputs": [],
      "name": "claimOwnership",
      "outputs": [],
      "payable": false,
      "stateMutability": "nonpayable",
      "type": "function"
    },
    {
      "constant": false,
      "inputs": [],
      "name": "renounceOwnership",
      "outputs": [],
      "payable": false,
      "stateMutability": "nonpayable",
      "type": "function"
    },
    {
      "constant": true,
      "inputs": [],
      "name": "owner",
      "outputs": [
        {
          "name": "",
          "type": "address"
        }
      ],
      "payable": false,
      "stateMutability": "view",
      "type": "function"
    },
    {
      "constant": true,
      "inputs": [],
      "name": "isOwner",
      "outputs": [
        {
          "name": "",
          "type": "bool"
        }
      ],
      "payable": false,
      "stateMutability": "view",
      "type": "function"
    },
    {
      "constant": true,
      "inputs": [],
      "name": "pendingOwner",
      "outputs": [
        {
          "name": "",
          "type": "address"
        }
      ],
      "payable": false,
      "stateMutability": "view",
      "type": "function"
    },
    {
      "constant": false,
      "inputs": [
        {
          "name": "newOwner",
          "type": "address"
        }
      ],
      "name": "transferOwnership",
      "outputs": [],
      "payable": false,
      "stateMutability": "nonpayable",
      "type": "function"
    },
    {
      "anonymous": false,
      "inputs": [
        {
          "indexed": true,
          "name": "previousOwner",
          "type": "address"
        }
      ],
      "name": "OwnershipRenounced",
      "type": "event"
    },
    {
      "anonymous": false,
      "inputs": [
        {
          "indexed": true,
          "name": "previousOwner",
          "type": "address"
        },
        {
          "indexed": true,
          "name": "newOwner",
          "type": "address"
        }
      ],
      "name": "OwnershipTransferred",
      "type": "event"
    },
    {
      "constant": true,
      "inputs": [
        {
          "name": "_user",
          "type": "address"
        }
      ],
      "name": "balanceOf",
      "outputs": [
        {
          "name": "",
          "type": "uint256"
        }
      ],
      "payable": false,
      "stateMutability": "view",
      "type": "function"
    },
    {
      "constant": false,
      "inputs": [
        {
          "name": "_addr",
          "type": "address"
        },
        {
          "name": "_value",
          "type": "uint256"
        }
      ],
      "name": "addBalance",
      "outputs": [],
      "payable": false,
      "stateMutability": "nonpayable",
      "type": "function"
    },
    {
      "constant": false,
      "inputs": [
        {
          "name": "_addr",
          "type": "address"
        },
        {
          "name": "_value",
          "type": "uint256"
        }
      ],
      "name": "subBalance",
      "outputs": [],
      "payable": false,
      "stateMutability": "nonpayable",
      "type": "function"
    },
    {
      "constant": false,
      "inputs": [
        {
          "name": "_addr",
          "type": "address"
        },
        {
          "name": "_value",
          "type": "uint256"
        }
      ],
      "name": "setBalance",
      "outputs": [],
      "payable": false,
      "stateMutability": "nonpayable",
      "type": "function"
    }
  ],
  "bytecode": "0x608060405260008054600160a060020a031916331790556104a2806100256000396000f3006080604052600436106100a35763ffffffff7c010000000000000000000000000000000000000000000000000000000060003504166321e5383a81146100a85780634e71e0c8146100ce57806370a08231146100e3578063715018a6146101165780638da5cb5b1461012b5780638f32d59b1461015c578063cf8eeb7e14610185578063e30443bc146101a9578063e30c3978146101cd578063f2fde38b146101e2575b600080fd5b3480156100b457600080fd5b506100cc600160a060020a0360043516602435610203565b005b3480156100da57600080fd5b506100cc61025f565b3480156100ef57600080fd5b50610104600160a060020a03600435166102e7565b60408051918252519081900360200190f35b34801561012257600080fd5b506100cc610302565b34801561013757600080fd5b5061014061036a565b60408051600160a060020a039092168252519081900360200190f35b34801561016857600080fd5b50610171610379565b604080519115158252519081900360200190f35b34801561019157600080fd5b506100cc600160a060020a036004351660243561038a565b3480156101b557600080fd5b506100cc600160a060020a03600435166024356103c6565b3480156101d957600080fd5b506101406103f5565b3480156101ee57600080fd5b506100cc600160a060020a0360043516610404565b61020b610379565b151561021657600080fd5b600160a060020a03821660009081526002602052604090205461023f908263ffffffff61044616565b600160a060020a0390921660009081526002602052604090209190915550565b600154600160a060020a0316331461027657600080fd5b60015460008054604051600160a060020a0393841693909116917f8be0079c531659141344cd1fd0a4f28419497f9722a3daafe3b4186f6b6457e091a3600180546000805473ffffffffffffffffffffffffffffffffffffffff19908116600160a060020a03841617909155169055565b600160a060020a031660009081526002602052604090205490565b61030a610379565b151561031557600080fd5b60008054604051600160a060020a03909116917ff8df31144d9c2f0f6b59d69b8b98abd5459d07f2742c4df920b25aae33c6482091a26000805473ffffffffffffffffffffffffffffffffffffffff19169055565b600054600160a060020a031690565b600054600160a060020a0316331490565b610392610379565b151561039d57600080fd5b600160a060020a03821660009081526002602052604090205461023f908263ffffffff61045f16565b6103ce610379565b15156103d957600080fd5b600160a060020a03909116600090815260026020526040902055565b600154600160a060020a031681565b61040c610379565b151561041757600080fd5b6001805473ffffffffffffffffffffffffffffffffffffffff1916600160a060020a0392909216919091179055565b60008282018381101561045857600080fd5b9392505050565b6000808383111561046f57600080fd5b50509003905600a165627a7a723058206dc350a38d7b4fcc71f2c8eb558b90e091151e5abb5c88f74e7ad24f4c09b7480029",
  "source": "pragma solidity ^0.4.23;\n\nimport \"../openzeppelin/ownership/Claimable.sol\";\nimport \"../openzeppelin/math/SafeMath.sol\";\n\n// A wrapper around the balanceOf mapping.\ncontract BalanceSheet is Claimable {\n    using SafeMath for uint256;\n\n    mapping (address => uint256) private _balances;\n\n    function balanceOf(address _user) public view returns (uint256) {\n      return _balances[_user];\n    }\n\n    function addBalance(address _addr, uint256 _value) public onlyOwner {\n        _balances[_addr] = _balances[_addr].add(_value);\n    }\n\n    function subBalance(address _addr, uint256 _value) public onlyOwner {\n        _balances[_addr] = _balances[_addr].sub(_value);\n    }\n\n    function setBalance(address _addr, uint256 _value) public onlyOwner {\n        _balances[_addr] = _value;\n    }\n}\n",
  "sourcePath": "/home/lamlt/Documents/hackathon/BOT-Token/contracts/basic-token/BalanceSheet.sol",
  "compiler": {
    "name": "solc",
    "version": "0.4.24+commit.e67f0147.Emscripten.clang"
  },
  "schemaVersion": "2.0.1",
  "updatedAt": "2018-10-22T09:43:39.152Z"
}