{
  "contractName": "BasicToken",
  "abi": [
    {
      "constant": false,
      "inputs": [],
      "name": "claimOwnership",
      "outputs": [],
      "payable": false,
      "stateMutability": "nonpayable",
      "type": "function"
    },
    {
      "constant": false,
      "inputs": [],
      "name": "renounceOwnership",
      "outputs": [],
      "payable": false,
      "stateMutability": "nonpayable",
      "type": "function"
    },
    {
      "constant": true,
      "inputs": [],
      "name": "owner",
      "outputs": [
        {
          "name": "",
          "type": "address"
        }
      ],
      "payable": false,
      "stateMutability": "view",
      "type": "function"
    },
    {
      "constant": true,
      "inputs": [],
      "name": "isOwner",
      "outputs": [
        {
          "name": "",
          "type": "bool"
        }
      ],
      "payable": false,
      "stateMutability": "view",
      "type": "function"
    },
    {
      "constant": true,
      "inputs": [],
      "name": "pendingOwner",
      "outputs": [
        {
          "name": "",
          "type": "address"
        }
      ],
      "payable": false,
      "stateMutability": "view",
      "type": "function"
    },
    {
      "constant": false,
      "inputs": [
        {
          "name": "newOwner",
          "type": "address"
        }
      ],
      "name": "transferOwnership",
      "outputs": [],
      "payable": false,
      "stateMutability": "nonpayable",
      "type": "function"
    },
    {
      "inputs": [],
      "payable": false,
      "stateMutability": "nonpayable",
      "type": "constructor"
    },
    {
      "anonymous": false,
      "inputs": [
        {
          "indexed": true,
          "name": "sheet",
          "type": "address"
        }
      ],
      "name": "BalanceSheetSet",
      "type": "event"
    },
    {
      "anonymous": false,
      "inputs": [
        {
          "indexed": true,
          "name": "previousOwner",
          "type": "address"
        }
      ],
      "name": "OwnershipRenounced",
      "type": "event"
    },
    {
      "anonymous": false,
      "inputs": [
        {
          "indexed": true,
          "name": "previousOwner",
          "type": "address"
        },
        {
          "indexed": true,
          "name": "newOwner",
          "type": "address"
        }
      ],
      "name": "OwnershipTransferred",
      "type": "event"
    },
    {
      "anonymous": false,
      "inputs": [
        {
          "indexed": true,
          "name": "from",
          "type": "address"
        },
        {
          "indexed": true,
          "name": "to",
          "type": "address"
        },
        {
          "indexed": false,
          "name": "value",
          "type": "uint256"
        }
      ],
      "name": "Transfer",
      "type": "event"
    },
    {
      "anonymous": false,
      "inputs": [
        {
          "indexed": true,
          "name": "owner",
          "type": "address"
        },
        {
          "indexed": true,
          "name": "spender",
          "type": "address"
        },
        {
          "indexed": false,
          "name": "value",
          "type": "uint256"
        }
      ],
      "name": "Approval",
      "type": "event"
    },
    {
      "constant": false,
      "inputs": [
        {
          "name": "_sheet",
          "type": "address"
        }
      ],
      "name": "setBalanceSheet",
      "outputs": [
        {
          "name": "",
          "type": "bool"
        }
      ],
      "payable": false,
      "stateMutability": "nonpayable",
      "type": "function"
    },
    {
      "constant": true,
      "inputs": [],
      "name": "totalSupply",
      "outputs": [
        {
          "name": "",
          "type": "uint256"
        }
      ],
      "payable": false,
      "stateMutability": "view",
      "type": "function"
    },
    {
      "constant": false,
      "inputs": [
        {
          "name": "to",
          "type": "address"
        },
        {
          "name": "value",
          "type": "uint256"
        }
      ],
      "name": "transfer",
      "outputs": [
        {
          "name": "",
          "type": "bool"
        }
      ],
      "payable": false,
      "stateMutability": "nonpayable",
      "type": "function"
    },
    {
      "constant": false,
      "inputs": [
        {
          "name": "from",
          "type": "address"
        },
        {
          "name": "to",
          "type": "address"
        },
        {
          "name": "value",
          "type": "uint256"
        }
      ],
      "name": "transferFrom",
      "outputs": [
        {
          "name": "",
          "type": "bool"
        }
      ],
      "payable": false,
      "stateMutability": "nonpayable",
      "type": "function"
    },
    {
      "constant": true,
      "inputs": [
        {
          "name": "_owner",
          "type": "address"
        }
      ],
      "name": "balanceOf",
      "outputs": [
        {
          "name": "balance",
          "type": "uint256"
        }
      ],
      "payable": false,
      "stateMutability": "view",
      "type": "function"
    },
    {
      "constant": false,
      "inputs": [
        {
          "name": "_spender",
          "type": "address"
        },
        {
          "name": "_value",
          "type": "uint256"
        }
      ],
      "name": "approve",
      "outputs": [
        {
          "name": "",
          "type": "bool"
        }
      ],
      "payable": false,
      "stateMutability": "nonpayable",
      "type": "function"
    },
    {
      "constant": true,
      "inputs": [
        {
          "name": "_owner",
          "type": "address"
        },
        {
          "name": "_spender",
          "type": "address"
        }
      ],
      "name": "allowance",
      "outputs": [
        {
          "name": "",
          "type": "uint256"
        }
      ],
      "payable": false,
      "stateMutability": "view",
      "type": "function"
    },
    {
      "constant": false,
      "inputs": [
        {
          "name": "_spender",
          "type": "address"
        },
        {
          "name": "_addedValue",
          "type": "uint256"
        }
      ],
      "name": "increaseApproval",
      "outputs": [
        {
          "name": "",
          "type": "bool"
        }
      ],
      "payable": false,
      "stateMutability": "nonpayable",
      "type": "function"
    },
    {
      "constant": false,
      "inputs": [
        {
          "name": "_spender",
          "type": "address"
        },
        {
          "name": "_subtractedValue",
          "type": "uint256"
        }
      ],
      "name": "decreaseApproval",
      "outputs": [
        {
          "name": "",
          "type": "bool"
        }
      ],
      "payable": false,
      "stateMutability": "nonpayable",
      "type": "function"
    }
  ],
  "bytecode": "0x608060405234801561001057600080fd5b5060008054600160a060020a03191633178155600455610ce2806100356000396000f3006080604052600436106100da5763ffffffff7c0100000000000000000000000000000000000000000000000000000000600035041663095ea7b381146100df57806318160ddd1461011757806323b872dd1461013e5780634e71e0c81461016857806354f78dad1461017f57806366188463146101a057806370a08231146101c4578063715018a6146101e55780638da5cb5b146101fa5780638f32d59b1461022b578063a9059cbb14610240578063d73dd62314610264578063dd62ed3e14610288578063e30c3978146102af578063f2fde38b146102c4575b600080fd5b3480156100eb57600080fd5b50610103600160a060020a03600435166024356102e5565b604080519115158252519081900360200190f35b34801561012357600080fd5b5061012c61034b565b60408051918252519081900360200190f35b34801561014a57600080fd5b50610103600160a060020a0360043581169060243516604435610351565b34801561017457600080fd5b5061017d6105e4565b005b34801561018b57600080fd5b50610103600160a060020a036004351661066c565b3480156101ac57600080fd5b50610103600160a060020a0360043516602435610758565b3480156101d057600080fd5b5061012c600160a060020a0360043516610847565b3480156101f157600080fd5b5061017d6108e4565b34801561020657600080fd5b5061020f61094c565b60408051600160a060020a039092168252519081900360200190f35b34801561023757600080fd5b5061010361095b565b34801561024c57600080fd5b50610103600160a060020a036004351660243561096c565b34801561027057600080fd5b50610103600160a060020a0360043516602435610b71565b34801561029457600080fd5b5061012c600160a060020a0360043581169060243516610c0a565b3480156102bb57600080fd5b5061020f610c35565b3480156102d057600080fd5b5061017d600160a060020a0360043516610c44565b336000818152600360209081526040808320600160a060020a038716808552908352818420869055815186815291519394909390927f8c5be1e5ebec7d5bd14f71427d1e84f3dd0314c0f7b2291e5b200ac8c7c3b925928290030190a350600192915050565b60045490565b600254604080517f70a08231000000000000000000000000000000000000000000000000000000008152600160a060020a038681166004830152915160009392909216916370a082319160248082019260209290919082900301818787803b1580156103bc57600080fd5b505af11580156103d0573d6000803e3d6000fd5b505050506040513d60208110156103e657600080fd5b50518211156103f457600080fd5b600160a060020a038416600090815260036020908152604080832033845290915290205482111561042457600080fd5b600160a060020a038316151561043957600080fd5b600254604080517fcf8eeb7e000000000000000000000000000000000000000000000000000000008152600160a060020a038781166004830152602482018690529151919092169163cf8eeb7e91604480830192600092919082900301818387803b1580156104a757600080fd5b505af11580156104bb573d6000803e3d6000fd5b5050600254604080517f21e5383a000000000000000000000000000000000000000000000000000000008152600160a060020a0388811660048301526024820188905291519190921693506321e5383a9250604480830192600092919082900301818387803b15801561052d57600080fd5b505af1158015610541573d6000803e3d6000fd5b505050600160a060020a038516600090815260036020908152604080832033845290915290205461057991508363ffffffff610c8616565b600160a060020a03808616600081815260036020908152604080832033845282529182902094909455805186815290519287169391927fddf252ad1be2c89b69c2b068fc378daa952ba7f163c4a11628f55a4df523b3ef929181900390910190a35060019392505050565b600154600160a060020a031633146105fb57600080fd5b60015460008054604051600160a060020a0393841693909116917f8be0079c531659141344cd1fd0a4f28419497f9722a3daafe3b4186f6b6457e091a3600180546000805473ffffffffffffffffffffffffffffffffffffffff19908116600160a060020a03841617909155169055565b600061067661095b565b151561068157600080fd5b6002805473ffffffffffffffffffffffffffffffffffffffff1916600160a060020a038481169190911791829055604080517f4e71e0c800000000000000000000000000000000000000000000000000000000815290519290911691634e71e0c89160048082019260009290919082900301818387803b15801561070457600080fd5b505af1158015610718573d6000803e3d6000fd5b5050604051600160a060020a03851692507fa89fb8ab3845cb6919c98b54ca0d8f398df48c64ae04ed309cd7b130539badd49150600090a2506001919050565b336000908152600360209081526040808320600160a060020a03861684529091528120548083106107ac57336000908152600360209081526040808320600160a060020a03881684529091528120556107e1565b6107bc818463ffffffff610c8616565b336000908152600360209081526040808320600160a060020a03891684529091529020555b336000818152600360209081526040808320600160a060020a0389168085529083529281902054815190815290519293927f8c5be1e5ebec7d5bd14f71427d1e84f3dd0314c0f7b2291e5b200ac8c7c3b925929181900390910190a35060019392505050565b600254604080517f70a08231000000000000000000000000000000000000000000000000000000008152600160a060020a038481166004830152915160009392909216916370a082319160248082019260209290919082900301818787803b1580156108b257600080fd5b505af11580156108c6573d6000803e3d6000fd5b505050506040513d60208110156108dc57600080fd5b505192915050565b6108ec61095b565b15156108f757600080fd5b60008054604051600160a060020a03909116917ff8df31144d9c2f0f6b59d69b8b98abd5459d07f2742c4df920b25aae33c6482091a26000805473ffffffffffffffffffffffffffffffffffffffff19169055565b600054600160a060020a031690565b600054600160a060020a0316331490565b600254604080517f70a082310000000000000000000000000000000000000000000000000000000081523360048201529051600092600160a060020a0316916370a0823191602480830192602092919082900301818787803b1580156109d157600080fd5b505af11580156109e5573d6000803e3d6000fd5b505050506040513d60208110156109fb57600080fd5b5051821115610a0957600080fd5b600160a060020a0383161515610a1e57600080fd5b600254604080517fcf8eeb7e000000000000000000000000000000000000000000000000000000008152336004820152602481018590529051600160a060020a039092169163cf8eeb7e9160448082019260009290919082900301818387803b158015610a8a57600080fd5b505af1158015610a9e573d6000803e3d6000fd5b5050600254604080517f21e5383a000000000000000000000000000000000000000000000000000000008152600160a060020a0388811660048301526024820188905291519190921693506321e5383a9250604480830192600092919082900301818387803b158015610b1057600080fd5b505af1158015610b24573d6000803e3d6000fd5b5050604080518581529051600160a060020a03871693503392507fddf252ad1be2c89b69c2b068fc378daa952ba7f163c4a11628f55a4df523b3ef9181900360200190a350600192915050565b336000908152600360209081526040808320600160a060020a0386168452909152812054610ba5908363ffffffff610c9d16565b336000818152600360209081526040808320600160a060020a0389168085529083529281902085905580519485525191937f8c5be1e5ebec7d5bd14f71427d1e84f3dd0314c0f7b2291e5b200ac8c7c3b925929081900390910190a350600192915050565b600160a060020a03918216600090815260036020908152604080832093909416825291909152205490565b600154600160a060020a031681565b610c4c61095b565b1515610c5757600080fd5b6001805473ffffffffffffffffffffffffffffffffffffffff1916600160a060020a0392909216919091179055565b60008083831115610c9657600080fd5b5050900390565b600082820183811015610caf57600080fd5b93925050505600a165627a7a723058202e767505e1979c0e10750065d6889c5fcc6be7c8a88f326c771fc1793a90f9950029",
  "source": "pragma solidity ^0.4.23;\n\n\nimport \"../openzeppelin/math/SafeMath.sol\";\nimport \"../openzeppelin/token/ERC20/IERC20.sol\";\nimport \"../openzeppelin/ownership/Ownable.sol\";\nimport \"./BalanceSheet.sol\";\n\n// Version of OpenZeppelin's BasicToken whose balances mapping has been replaced\n// with a separate BalanceSheet contract. Most useful in combination with e.g.\n// HasNoContracts because then it can relinquish its balance sheet to a new\n// version of the token, removing the need to copy over balances.\n/**\n * @title Basic token\n * @dev Basic version of StandardToken, with no allowances.\n */\ncontract BasicToken is IERC20, Claimable {\n    using SafeMath for uint256;\n\n    BalanceSheet private _balances;\n    mapping (address => mapping (address => uint256)) private _allowed;\n    uint256 private _totalSupply;\n\n    event BalanceSheetSet(address indexed sheet);\n\n    constructor() public {\n      _totalSupply = 0;\n    }\n    /**\n    * @dev claim ownership of the balancesheet contract\n    * @param _sheet The address to of the balancesheet to claim.\n    */\n    function setBalanceSheet(address _sheet) public onlyOwner returns (bool) {\n        _balances = BalanceSheet(_sheet);\n        _balances.claimOwnership();\n        emit BalanceSheetSet(_sheet);\n        return true;\n    }\n\n    /**\n    * @dev total number of tokens in existence\n    */\n    function totalSupply() public view returns (uint256) {\n        return _totalSupply;\n    }\n\n    /**\n    * @dev Transfer token for a specified address\n    * @param to The address to transfer to.\n    * @param value The amount to be transferred.\n    */\n    function transfer(address to, uint256 value) public returns (bool) {\n      require(value <= _balances.balanceOf(msg.sender));\n      require(to != address(0));\n\n      _balances.subBalance(msg.sender, value);\n      _balances.addBalance(to, value);\n      emit Transfer(msg.sender, to, value);\n      return true;\n    }\n\n    /**\n     * @dev Transfer tokens from one address to another\n     * @param from address The address which you want to send tokens from\n     * @param to address The address which you want to transfer to\n     * @param value uint256 the amount of tokens to be transferred\n     */\n    function transferFrom(\n      address from,\n      address to,\n      uint256 value\n    )\n      public\n      returns (bool)\n    {\n      require(value <= _balances.balanceOf(from));\n      require(value <= _allowed[from][msg.sender]);\n      require(to != address(0));\n\n      _balances.subBalance(from, value);\n      _balances.addBalance(to, value);\n      _allowed[from][msg.sender] = _allowed[from][msg.sender].sub(value);\n      emit Transfer(from, to, value);\n      return true;\n    }\n\n    function transferAllArgs(address _from, address _to, uint256 _value) internal {\n        require(_to != address(0),\"to address cannot be 0x0\");\n        require(_from != address(0),\"from address cannot be 0x0\");\n        require(_value <= _balances.balanceOf(_from),\"not enough balance to transfer\");\n\n        // SafeMath.sub will throw if there is not enough balance.\n        _balances.subBalance(_from, _value);\n        _balances.addBalance(_to, _value);\n    }\n\n    /**\n    * @dev Gets the balance of the specified address.\n    * @param _owner The address to query the the balance of.\n    * @return An uint256 representing the amount owned by the passed address.\n    */\n    function balanceOf(address _owner) public view returns (uint256 balance) {\n        return _balances.balanceOf(_owner);\n    }\n\n    /**\n     * @dev Approve the passed address to spend the specified amount of tokens on behalf of msg.sender.\n     * Beware that changing an allowance with this method brings the risk that someone may use both the old\n     * and the new allowance by unfortunate transaction ordering. One possible solution to mitigate this\n     * race condition is to first reduce the spender's allowance to 0 and set the desired value afterwards:\n     * https://github.com/ethereum/EIPs/issues/20#issuecomment-263524729\n     * @param _spender The address which will spend the funds.\n     * @param _value The amount of tokens to be spent.\n     */\n    function approve(address _spender, uint256 _value) public returns (bool) {\n      _allowed[msg.sender][_spender] = _value;\n      emit Approval(msg.sender, _spender, _value);\n      return true;\n    }\n\n    /**\n     * @dev Function to check the amount of tokens that an owner allowed to a spender.\n     * @param _owner address The address which owns the funds.\n     * @param _spender address The address which will spend the funds.\n     * @return A uint256 specifying the amount of tokens still available for the spender.\n     */\n    function allowance(\n      address _owner,\n      address _spender\n     )\n      public\n      view\n      returns (uint256)\n    {\n      return _allowed[_owner][_spender];\n    }\n\n    /**\n     * @dev Increase the amount of tokens that an owner allowed to a spender.\n     * approve should be called when allowed[_spender] == 0. To increment\n     * allowed value is better to use this function to avoid 2 calls (and wait until\n     * the first transaction is mined)\n     * From MonolithDAO Token.sol\n     * @param _spender The address which will spend the funds.\n     * @param _addedValue The amount of tokens to increase the allowance by.\n     */\n    function increaseApproval(\n      address _spender,\n      uint256 _addedValue\n    )\n      public\n      returns (bool)\n    {\n      _allowed[msg.sender][_spender] = (\n        _allowed[msg.sender][_spender].add(_addedValue));\n      emit Approval(msg.sender, _spender, _allowed[msg.sender][_spender]);\n      return true;\n    }\n\n    /**\n     * @dev Decrease the amount of tokens that an owner allowed to a spender.\n     * approve should be called when allowed[_spender] == 0. To decrement\n     * allowed value is better to use this function to avoid 2 calls (and wait until\n     * the first transaction is mined)\n     * From MonolithDAO Token.sol\n     * @param _spender The address which will spend the funds.\n     * @param _subtractedValue The amount of tokens to decrease the allowance by.\n     */\n    function decreaseApproval(\n      address _spender,\n      uint256 _subtractedValue\n    )\n      public\n      returns (bool)\n    {\n      uint256 oldValue = _allowed[msg.sender][_spender];\n      if (_subtractedValue >= oldValue) {\n        _allowed[msg.sender][_spender] = 0;\n      } else {\n        _allowed[msg.sender][_spender] = oldValue.sub(_subtractedValue);\n      }\n      emit Approval(msg.sender, _spender, _allowed[msg.sender][_spender]);\n      return true;\n    }\n\n    /**\n     * @dev Internal function that mints an amount of the token and assigns it to\n     * an account. This encapsulates the modification of balances such that the\n     * proper events are emitted.\n     * @param account The account that will receive the created tokens.\n     * @param amount The amount that will be created.\n     */\n    function _mint(address account, uint256 amount) internal {\n      require(account != 0);\n      _totalSupply = _totalSupply.add(amount);\n      _balances.addBalance(account, amount);\n      emit Transfer(address(0), account, amount);\n    }\n\n    /**\n     * @dev Internal function that burns an amount of the token of a given\n     * account.\n     * @param account The account whose tokens will be burnt.\n     * @param amount The amount that will be burnt.\n     */\n    function _burn(address account, uint256 amount) internal {\n      require(account != 0);\n      require(amount <= _balances.balanceOf(account));\n\n      _totalSupply = _totalSupply.sub(amount);\n      _balances.subBalance(account, amount);\n      emit Transfer(account, address(0), amount);\n    }\n}\n",
  "sourcePath": "/home/lamluong/Documents/hackathon/BOT-Token/contracts/basic-token/BasicToken.sol",
  "compiler": {
    "name": "solc",
    "version": "0.4.24+commit.e67f0147.Emscripten.clang"
  },
  "schemaVersion": "2.0.1",
  "updatedAt": "2018-10-21T07:39:47.342Z"
}