{
  "contractName": "BOTToken",
  "abi": [
    {
      "constant": true,
      "inputs": [],
      "name": "name",
      "outputs": [
        {
          "name": "",
          "type": "string"
        }
      ],
      "payable": false,
      "stateMutability": "view",
      "type": "function"
    },
    {
      "constant": false,
      "inputs": [
        {
          "name": "spender",
          "type": "address"
        },
        {
          "name": "value",
          "type": "uint256"
        }
      ],
      "name": "approve",
      "outputs": [
        {
          "name": "",
          "type": "bool"
        }
      ],
      "payable": false,
      "stateMutability": "nonpayable",
      "type": "function"
    },
    {
      "constant": true,
      "inputs": [],
      "name": "TOTAL_TOKENS",
      "outputs": [
        {
          "name": "",
          "type": "uint256"
        }
      ],
      "payable": false,
      "stateMutability": "view",
      "type": "function"
    },
    {
      "constant": true,
      "inputs": [],
      "name": "totalSupply",
      "outputs": [
        {
          "name": "",
          "type": "uint256"
        }
      ],
      "payable": false,
      "stateMutability": "view",
      "type": "function"
    },
    {
      "constant": false,
      "inputs": [
        {
          "name": "from",
          "type": "address"
        },
        {
          "name": "to",
          "type": "address"
        },
        {
          "name": "value",
          "type": "uint256"
        }
      ],
      "name": "transferFrom",
      "outputs": [
        {
          "name": "",
          "type": "bool"
        }
      ],
      "payable": false,
      "stateMutability": "nonpayable",
      "type": "function"
    },
    {
      "constant": true,
      "inputs": [],
      "name": "rate",
      "outputs": [
        {
          "name": "",
          "type": "uint256"
        }
      ],
      "payable": false,
      "stateMutability": "view",
      "type": "function"
    },
    {
      "constant": true,
      "inputs": [],
      "name": "decimals",
      "outputs": [
        {
          "name": "",
          "type": "uint8"
        }
      ],
      "payable": false,
      "stateMutability": "view",
      "type": "function"
    },
    {
      "constant": false,
      "inputs": [],
      "name": "unpause",
      "outputs": [],
      "payable": false,
      "stateMutability": "nonpayable",
      "type": "function"
    },
    {
      "constant": false,
      "inputs": [
        {
          "name": "value",
          "type": "uint256"
        }
      ],
      "name": "burn",
      "outputs": [],
      "payable": false,
      "stateMutability": "nonpayable",
      "type": "function"
    },
    {
      "constant": false,
      "inputs": [],
      "name": "claimOwnership",
      "outputs": [],
      "payable": false,
      "stateMutability": "nonpayable",
      "type": "function"
    },
    {
      "constant": true,
      "inputs": [],
      "name": "wallet",
      "outputs": [
        {
          "name": "",
          "type": "address"
        }
      ],
      "payable": false,
      "stateMutability": "view",
      "type": "function"
    },
    {
      "constant": true,
      "inputs": [],
      "name": "currentCharges",
      "outputs": [
        {
          "name": "",
          "type": "uint256"
        }
      ],
      "payable": false,
      "stateMutability": "view",
      "type": "function"
    },
    {
      "constant": false,
      "inputs": [
        {
          "name": "_sheet",
          "type": "address"
        }
      ],
      "name": "setBalanceSheet",
      "outputs": [
        {
          "name": "",
          "type": "bool"
        }
      ],
      "payable": false,
      "stateMutability": "nonpayable",
      "type": "function"
    },
    {
      "constant": true,
      "inputs": [],
      "name": "defaultFee",
      "outputs": [
        {
          "name": "",
          "type": "uint256"
        }
      ],
      "payable": false,
      "stateMutability": "view",
      "type": "function"
    },
    {
      "constant": true,
      "inputs": [],
      "name": "paused",
      "outputs": [
        {
          "name": "",
          "type": "bool"
        }
      ],
      "payable": false,
      "stateMutability": "view",
      "type": "function"
    },
    {
      "constant": true,
      "inputs": [],
      "name": "capCharges",
      "outputs": [
        {
          "name": "",
          "type": "uint256"
        }
      ],
      "payable": false,
      "stateMutability": "view",
      "type": "function"
    },
    {
      "constant": false,
      "inputs": [
        {
          "name": "spender",
          "type": "address"
        },
        {
          "name": "subtractedValue",
          "type": "uint256"
        }
      ],
      "name": "decreaseApproval",
      "outputs": [
        {
          "name": "success",
          "type": "bool"
        }
      ],
      "payable": false,
      "stateMutability": "nonpayable",
      "type": "function"
    },
    {
      "constant": true,
      "inputs": [
        {
          "name": "_owner",
          "type": "address"
        }
      ],
      "name": "balanceOf",
      "outputs": [
        {
          "name": "balance",
          "type": "uint256"
        }
      ],
      "payable": false,
      "stateMutability": "view",
      "type": "function"
    },
    {
      "constant": false,
      "inputs": [],
      "name": "renounceOwnership",
      "outputs": [],
      "payable": false,
      "stateMutability": "nonpayable",
      "type": "function"
    },
    {
      "constant": false,
      "inputs": [
        {
          "name": "_from",
          "type": "address"
        },
        {
          "name": "_value",
          "type": "uint256"
        }
      ],
      "name": "burnFrom",
      "outputs": [],
      "payable": false,
      "stateMutability": "nonpayable",
      "type": "function"
    },
    {
      "constant": false,
      "inputs": [],
      "name": "pause",
      "outputs": [],
      "payable": false,
      "stateMutability": "nonpayable",
      "type": "function"
    },
    {
      "constant": true,
      "inputs": [],
      "name": "owner",
      "outputs": [
        {
          "name": "",
          "type": "address"
        }
      ],
      "payable": false,
      "stateMutability": "view",
      "type": "function"
    },
    {
      "constant": true,
      "inputs": [],
      "name": "isOwner",
      "outputs": [
        {
          "name": "",
          "type": "bool"
        }
      ],
      "payable": false,
      "stateMutability": "view",
      "type": "function"
    },
    {
      "constant": true,
      "inputs": [],
      "name": "symbol",
      "outputs": [
        {
          "name": "",
          "type": "string"
        }
      ],
      "payable": false,
      "stateMutability": "view",
      "type": "function"
    },
    {
      "constant": false,
      "inputs": [
        {
          "name": "to",
          "type": "address"
        },
        {
          "name": "value",
          "type": "uint256"
        }
      ],
      "name": "transfer",
      "outputs": [
        {
          "name": "",
          "type": "bool"
        }
      ],
      "payable": false,
      "stateMutability": "nonpayable",
      "type": "function"
    },
    {
      "constant": false,
      "inputs": [
        {
          "name": "spender",
          "type": "address"
        },
        {
          "name": "addedValue",
          "type": "uint256"
        }
      ],
      "name": "increaseApproval",
      "outputs": [
        {
          "name": "success",
          "type": "bool"
        }
      ],
      "payable": false,
      "stateMutability": "nonpayable",
      "type": "function"
    },
    {
      "constant": true,
      "inputs": [
        {
          "name": "_owner",
          "type": "address"
        },
        {
          "name": "_spender",
          "type": "address"
        }
      ],
      "name": "allowance",
      "outputs": [
        {
          "name": "",
          "type": "uint256"
        }
      ],
      "payable": false,
      "stateMutability": "view",
      "type": "function"
    },
    {
      "constant": true,
      "inputs": [],
      "name": "pendingOwner",
      "outputs": [
        {
          "name": "",
          "type": "address"
        }
      ],
      "payable": false,
      "stateMutability": "view",
      "type": "function"
    },
    {
      "constant": false,
      "inputs": [
        {
          "name": "newOwner",
          "type": "address"
        }
      ],
      "name": "transferOwnership",
      "outputs": [],
      "payable": false,
      "stateMutability": "nonpayable",
      "type": "function"
    },
    {
      "inputs": [
        {
          "name": "_wallet",
          "type": "address"
        },
        {
          "name": "_capChage",
          "type": "uint256"
        },
        {
          "name": "_rate",
          "type": "uint256"
        },
        {
          "name": "_defaultFee",
          "type": "uint256"
        }
      ],
      "payable": false,
      "stateMutability": "nonpayable",
      "type": "constructor"
    },
    {
      "anonymous": false,
      "inputs": [
        {
          "indexed": false,
          "name": "_rate",
          "type": "uint256"
        }
      ],
      "name": "SetRate",
      "type": "event"
    },
    {
      "anonymous": false,
      "inputs": [
        {
          "indexed": false,
          "name": "_defaultFee",
          "type": "uint256"
        }
      ],
      "name": "ChangeDefaultFee",
      "type": "event"
    },
    {
      "anonymous": false,
      "inputs": [],
      "name": "Paused",
      "type": "event"
    },
    {
      "anonymous": false,
      "inputs": [],
      "name": "Unpaused",
      "type": "event"
    },
    {
      "anonymous": false,
      "inputs": [
        {
          "indexed": true,
          "name": "sheet",
          "type": "address"
        }
      ],
      "name": "BalanceSheetSet",
      "type": "event"
    },
    {
      "anonymous": false,
      "inputs": [
        {
          "indexed": true,
          "name": "previousOwner",
          "type": "address"
        }
      ],
      "name": "OwnershipRenounced",
      "type": "event"
    },
    {
      "anonymous": false,
      "inputs": [
        {
          "indexed": true,
          "name": "previousOwner",
          "type": "address"
        },
        {
          "indexed": true,
          "name": "newOwner",
          "type": "address"
        }
      ],
      "name": "OwnershipTransferred",
      "type": "event"
    },
    {
      "anonymous": false,
      "inputs": [
        {
          "indexed": true,
          "name": "from",
          "type": "address"
        },
        {
          "indexed": true,
          "name": "to",
          "type": "address"
        },
        {
          "indexed": false,
          "name": "value",
          "type": "uint256"
        }
      ],
      "name": "Transfer",
      "type": "event"
    },
    {
      "anonymous": false,
      "inputs": [
        {
          "indexed": true,
          "name": "owner",
          "type": "address"
        },
        {
          "indexed": true,
          "name": "spender",
          "type": "address"
        },
        {
          "indexed": false,
          "name": "value",
          "type": "uint256"
        }
      ],
      "name": "Approval",
      "type": "event"
    },
    {
      "constant": false,
      "inputs": [
        {
          "name": "_rate",
          "type": "uint256"
        }
      ],
      "name": "setRate",
      "outputs": [
        {
          "name": "",
          "type": "bool"
        }
      ],
      "payable": false,
      "stateMutability": "nonpayable",
      "type": "function"
    },
    {
      "constant": false,
      "inputs": [
        {
          "name": "_wallet",
          "type": "address"
        }
      ],
      "name": "changeWallet",
      "outputs": [
        {
          "name": "",
          "type": "bool"
        }
      ],
      "payable": false,
      "stateMutability": "nonpayable",
      "type": "function"
    },
    {
      "constant": false,
      "inputs": [
        {
          "name": "_defaultFee",
          "type": "uint256"
        }
      ],
      "name": "changeDefaultFee",
      "outputs": [
        {
          "name": "",
          "type": "bool"
        }
      ],
      "payable": false,
      "stateMutability": "nonpayable",
      "type": "function"
    },
    {
      "constant": false,
      "inputs": [
        {
          "name": "_to",
          "type": "address"
        },
        {
          "name": "_amount",
          "type": "uint256"
        }
      ],
      "name": "mint",
      "outputs": [
        {
          "name": "",
          "type": "bool"
        }
      ],
      "payable": false,
      "stateMutability": "nonpayable",
      "type": "function"
    },
    {
      "constant": false,
      "inputs": [],
      "name": "payServiceFeeUseEther",
      "outputs": [],
      "payable": true,
      "stateMutability": "payable",
      "type": "function"
    },
    {
      "constant": false,
      "inputs": [
        {
          "name": "_fee",
          "type": "uint256"
        }
      ],
      "name": "payServiceFeeUseToken",
      "outputs": [],
      "payable": false,
      "stateMutability": "nonpayable",
      "type": "function"
    }
  ],
  "bytecode": "0x60806040526005805460ff1916905534801561001a57600080fd5b506040516080806117fa83398101604081815282516020808501518386015160609096015160008054600160a060020a03191633178155600481905560058054600160a060020a0387166101000261010060a860020a03199091161790556007889055600682905560088390556009558686529351929590949093927f2640b4015d3473fd09bf2b30939e17deb4068cdacf3892136e737e166ceb3210929181900390910190a150505050611726806100d46000396000f3006080604052600436106101b65763ffffffff7c010000000000000000000000000000000000000000000000000000000060003504166306fdde0381146101bb578063095ea7b3146102455780630b7abf771461027d57806318160ddd146102a457806323b872dd146102b95780632c4e722e146102e35780632f193cfc146102f8578063313ce5671461030257806334fcf4371461032d5780633f4ba83a1461034557806340c10f191461035a57806341d049931461037e57806342966c68146103965780634e71e0c8146103ae578063521eb273146103c357806353742870146103f457806354f78dad146104095780635a6c72d01461042a5780635b662a9b1461043f5780635c975abb146104575780636053233b1461046c578063661884631461048157806370a08231146104a5578063715018a6146104c657806379cc6790146104db5780638456cb59146104ff5780638da5cb5b146105145780638f32d59b1461052957806395d89b411461053e57806398b9a2dc14610553578063a9059cbb14610574578063d73dd62314610598578063dd62ed3e146105bc578063e30c3978146105e3578063f2fde38b146105f8575b600080fd5b3480156101c757600080fd5b506101d0610619565b6040805160208082528351818301528351919283929083019185019080838360005b8381101561020a5781810151838201526020016101f2565b50505050905090810190601f1680156102375780820380516001836020036101000a031916815260200191505b509250505060405180910390f35b34801561025157600080fd5b50610269600160a060020a0360043516602435610650565b604080519115158252519081900360200190f35b34801561028957600080fd5b50610292610674565b60408051918252519081900360200190f35b3480156102b057600080fd5b50610292610681565b3480156102c557600080fd5b50610269600160a060020a0360043581169060243516604435610687565b3480156102ef57600080fd5b506102926106ad565b6103006106b3565b005b34801561030e57600080fd5b50610317610719565b6040805160ff9092168252519081900360200190f35b34801561033957600080fd5b5061026960043561071e565b34801561035157600080fd5b50610300610773565b34801561036657600080fd5b50610269600160a060020a03600435166024356107cc565b34801561038a57600080fd5b5061026960043561081b565b3480156103a257600080fd5b50610300600435610870565b3480156103ba57600080fd5b5061030061087d565b3480156103cf57600080fd5b506103d8610905565b60408051600160a060020a039092168252519081900360200190f35b34801561040057600080fd5b50610292610919565b34801561041557600080fd5b50610269600160a060020a036004351661091f565b34801561043657600080fd5b50610292610a0b565b34801561044b57600080fd5b50610300600435610a11565b34801561046357600080fd5b50610269610a72565b34801561047857600080fd5b50610292610a7b565b34801561048d57600080fd5b50610269600160a060020a0360043516602435610a81565b3480156104b157600080fd5b50610292600160a060020a0360043516610a9e565b3480156104d257600080fd5b50610300610b25565b3480156104e757600080fd5b50610300600160a060020a0360043516602435610b8d565b34801561050b57600080fd5b50610300610baa565b34801561052057600080fd5b506103d8610c05565b34801561053557600080fd5b50610269610c14565b34801561054a57600080fd5b506101d0610c25565b34801561055f57600080fd5b50610269600160a060020a0360043516610c5c565b34801561058057600080fd5b50610269600160a060020a0360043516602435610ca8565b3480156105a457600080fd5b50610269600160a060020a0360043516602435610cc5565b3480156105c857600080fd5b50610292600160a060020a0360043581169060243516610ce2565b3480156105ef57600080fd5b506103d8610d0d565b34801561060457600080fd5b50610300600160a060020a0360043516610d1c565b60408051808201909152600881527f424f54546f6b656e000000000000000000000000000000000000000000000000602082015281565b60055460009060ff161561066357600080fd5b61066d8383610d5e565b9392505050565b68056bc75e2d6310000081565b60045490565b60055460009060ff161561069a57600080fd5b6106a5848484610dc4565b949350505050565b60075481565b346000806106c08361102f565b6006549092508210156106d257600080fd5b60085460095411156106e357600080fd5b6106ed3083610ca8565b9050801561070c57600954610708908363ffffffff61104c16565b6009555b610714611069565b505050565b600981565b6000610728610c14565b151561073357600080fd5b60078290556040805183815290517f2640b4015d3473fd09bf2b30939e17deb4068cdacf3892136e737e166ceb32109181900360200190a1506001919050565b61077b610c14565b151561078657600080fd5b60055460ff16151561079757600080fd5b6005805460ff191690556040517fa45f47fdea8a1efdd9029a5691c7f759c32b7c698632b563573e155625d1693390600090a1565b60008054600160a060020a031633146107e457600080fd5b68056bc75e2d63100000610806836107fa610681565b9063ffffffff61104c16565b111561081157600080fd5b61066d83836110a9565b6000610825610c14565b151561083057600080fd5b60068290556040805183815290517f2392e5e3c61f1be9d65eb18923f13a380f1060f490065318f914651e997059ec9181900360200190a1506001919050565b61087a33826110d4565b50565b600154600160a060020a0316331461089457600080fd5b60015460008054604051600160a060020a0393841693909116917f8be0079c531659141344cd1fd0a4f28419497f9722a3daafe3b4186f6b6457e091a3600180546000805473ffffffffffffffffffffffffffffffffffffffff19908116600160a060020a03841617909155169055565b6005546101009004600160a060020a031681565b60095481565b6000610929610c14565b151561093457600080fd5b6002805473ffffffffffffffffffffffffffffffffffffffff1916600160a060020a038481169190911791829055604080517f4e71e0c800000000000000000000000000000000000000000000000000000000815290519290911691634e71e0c89160048082019260009290919082900301818387803b1580156109b757600080fd5b505af11580156109cb573d6000803e3d6000fd5b5050604051600160a060020a03851692507fa89fb8ab3845cb6919c98b54ca0d8f398df48c64ae04ed309cd7b130539badd49150600090a2506001919050565b60065481565b600654600090821015610a2357600080fd5b6008546009541115610a3457600080fd5b600554610a4f906101009004600160a060020a031683610ca8565b90508015610a6e57600954610a6a908363ffffffff61104c16565b6009555b5050565b60055460ff1690565b60085481565b60055460009060ff1615610a9457600080fd5b61066d8383611247565b6002546040805160e060020a6370a08231028152600160a060020a038481166004830152915160009392909216916370a082319160248082019260209290919082900301818787803b158015610af357600080fd5b505af1158015610b07573d6000803e3d6000fd5b505050506040513d6020811015610b1d57600080fd5b505192915050565b610b2d610c14565b1515610b3857600080fd5b60008054604051600160a060020a03909116917ff8df31144d9c2f0f6b59d69b8b98abd5459d07f2742c4df920b25aae33c6482091a26000805473ffffffffffffffffffffffffffffffffffffffff19169055565b610b95610c14565b1515610ba057600080fd5b610a6e82826110d4565b610bb2610c14565b1515610bbd57600080fd5b60055460ff1615610bcd57600080fd5b6005805460ff191660011790556040517f9e87fac88ff661f02d44f95383c817fece4bce600a3dab7a54406878b965e75290600090a1565b600054600160a060020a031690565b600054600160a060020a0316331490565b60408051808201909152600381527f424f540000000000000000000000000000000000000000000000000000000000602082015281565b6000610c66610c14565b1515610c7157600080fd5b5060058054600160a060020a0383166101000274ffffffffffffffffffffffffffffffffffffffff00199091161790556001919050565b60055460009060ff1615610cbb57600080fd5b61066d8383611336565b60055460009060ff1615610cd857600080fd5b61066d8383611513565b600160a060020a03918216600090815260036020908152604080832093909416825291909152205490565b600154600160a060020a031681565b610d24610c14565b1515610d2f57600080fd5b6001805473ffffffffffffffffffffffffffffffffffffffff1916600160a060020a0392909216919091179055565b336000818152600360209081526040808320600160a060020a038716808552908352818420869055815186815291519394909390927f8c5be1e5ebec7d5bd14f71427d1e84f3dd0314c0f7b2291e5b200ac8c7c3b925928290030190a350600192915050565b6002546040805160e060020a6370a08231028152600160a060020a038681166004830152915160009392909216916370a082319160248082019260209290919082900301818787803b158015610e1957600080fd5b505af1158015610e2d573d6000803e3d6000fd5b505050506040513d6020811015610e4357600080fd5b5051821115610e5157600080fd5b600160a060020a0384166000908152600360209081526040808320338452909152902054821115610e8157600080fd5b600160a060020a0383161515610e9657600080fd5b600254604080517fcf8eeb7e000000000000000000000000000000000000000000000000000000008152600160a060020a038781166004830152602482018690529151919092169163cf8eeb7e91604480830192600092919082900301818387803b158015610f0457600080fd5b505af1158015610f18573d6000803e3d6000fd5b5050600254604080517f21e5383a000000000000000000000000000000000000000000000000000000008152600160a060020a0388811660048301526024820188905291519190921693506321e5383a9250604480830192600092919082900301818387803b158015610f8a57600080fd5b505af1158015610f9e573d6000803e3d6000fd5b505050600160a060020a0385166000908152600360209081526040808320338452909152902054610fd691508363ffffffff6115ac16565b600160a060020a03808616600081815260036020908152604080832033845282529182902094909455805186815290519287169391926000805160206116db833981519152929181900390910190a35060019392505050565b6000611046600754836115c390919063ffffffff16565b92915050565b60008282018381101561105e57600080fd5b8091505b5092915050565b600554604051600160a060020a0361010090920491909116903480156108fc02916000818181858888f1935050505015801561087a573d6000803e3d6000fd5b60008054600160a060020a031633146110c157600080fd5b6110cb83836115f1565b50600192915050565b600160a060020a03821615156110e957600080fd5b6002546040805160e060020a6370a08231028152600160a060020a038581166004830152915191909216916370a082319160248083019260209291908290030181600087803b15801561113b57600080fd5b505af115801561114f573d6000803e3d6000fd5b505050506040513d602081101561116557600080fd5b505181111561117357600080fd5b600454611186908263ffffffff6115ac16565b6004908155600254604080517fcf8eeb7e000000000000000000000000000000000000000000000000000000008152600160a060020a0386811694820194909452602481018590529051929091169163cf8eeb7e9160448082019260009290919082900301818387803b1580156111fc57600080fd5b505af1158015611210573d6000803e3d6000fd5b505060408051848152905160009350600160a060020a03861692506000805160206116db8339815191529181900360200190a35050565b336000908152600360209081526040808320600160a060020a038616845290915281205480831061129b57336000908152600360209081526040808320600160a060020a03881684529091528120556112d0565b6112ab818463ffffffff6115ac16565b336000908152600360209081526040808320600160a060020a03891684529091529020555b336000818152600360209081526040808320600160a060020a0389168085529083529281902054815190815290519293927f8c5be1e5ebec7d5bd14f71427d1e84f3dd0314c0f7b2291e5b200ac8c7c3b925929181900390910190a35060019392505050565b6002546040805160e060020a6370a082310281523360048201529051600092600160a060020a0316916370a0823191602480830192602092919082900301818787803b15801561138557600080fd5b505af1158015611399573d6000803e3d6000fd5b505050506040513d60208110156113af57600080fd5b50518211156113bd57600080fd5b600160a060020a03831615156113d257600080fd5b600254604080517fcf8eeb7e000000000000000000000000000000000000000000000000000000008152336004820152602481018590529051600160a060020a039092169163cf8eeb7e9160448082019260009290919082900301818387803b15801561143e57600080fd5b505af1158015611452573d6000803e3d6000fd5b5050600254604080517f21e5383a000000000000000000000000000000000000000000000000000000008152600160a060020a0388811660048301526024820188905291519190921693506321e5383a9250604480830192600092919082900301818387803b1580156114c457600080fd5b505af11580156114d8573d6000803e3d6000fd5b5050604080518581529051600160a060020a03871693503392506000805160206116db8339815191529181900360200190a350600192915050565b336000908152600360209081526040808320600160a060020a0386168452909152812054611547908363ffffffff61104c16565b336000818152600360209081526040808320600160a060020a0389168085529083529281902085905580519485525191937f8c5be1e5ebec7d5bd14f71427d1e84f3dd0314c0f7b2291e5b200ac8c7c3b925929081900390910190a350600192915050565b600080838311156115bc57600080fd5b5050900390565b6000808315156115d65760009150611062565b508282028284828115156115e657fe5b041461105e57600080fd5b600160a060020a038216151561160657600080fd5b600454611619908263ffffffff61104c16565b6004908155600254604080517f21e5383a000000000000000000000000000000000000000000000000000000008152600160a060020a038681169482019490945260248101859052905192909116916321e5383a9160448082019260009290919082900301818387803b15801561168f57600080fd5b505af11580156116a3573d6000803e3d6000fd5b5050604080518481529051600160a060020a0386169350600092506000805160206116db8339815191529181900360200190a350505600ddf252ad1be2c89b69c2b068fc378daa952ba7f163c4a11628f55a4df523b3efa165627a7a723058204fd20bf65d4badf83fb23bf031b2a9dc775296131c64c7c0615e1b8cba068f2c0029",
  "source": "pragma solidity ^0.4.24;\n\nimport \"./basic-token/PausableToken.sol\";\nimport \"./basic-token/MintableToken.sol\";\nimport \"./basic-token/BurnableToken.sol\";\nimport \"./openzeppelin/math/SafeMath.sol\";\n\n// This is the top-level ERC20 contract, but most of the interesting functionality is\n// inherited - see the documentation on the corresponding contracts.\ncontract BOTToken is BurnableToken, MintableToken, PausableToken {\n  using SafeMath for uint256;\n\n  string public constant name = \"BOTToken\";\n  string public constant symbol = \"BOT\";\n\n  uint8 public constant decimals = 9;\n  uint256 public constant TOTAL_TOKENS = 100 * (10**9) * (10 ** uint256(decimals)); // 100 billion\n\n  address public wallet;\n  uint256 public defaultFee;\n  uint256 public rate;\n  uint256 public capCharges;\n  uint256 public currentCharges;\n\n  event SetRate(uint256 _rate);\n  event ChangeDefaultFee(uint256 _defaultFee);\n\n  constructor(address _wallet, uint256 _capChage, uint256 _rate, uint256 _defaultFee) public {\n    wallet = _wallet;\n    rate = _rate;\n    defaultFee = _defaultFee;\n    capCharges = _capChage;\n    currentCharges = 0;\n\n    emit SetRate(_rate);\n  }\n\n  function setRate(uint256 _rate) public onlyOwner returns(bool) {\n    rate = _rate;\n    emit SetRate(_rate);\n\n    return true;\n  }\n\n  function changeWallet(address _wallet) public onlyOwner returns(bool) {\n    wallet = _wallet;\n\n    return true;\n  }\n\n  function changeDefaultFee(uint256 _defaultFee) public onlyOwner returns(bool) {\n    defaultFee = _defaultFee;\n    emit ChangeDefaultFee(_defaultFee);\n\n    return true;\n  }\n\n  /**\n   * @dev Mints tokens to a beneficiary address. Capped by TOTAL_TOKENS.\n   * @param _to Who got the tokens.\n   * @param _amount Amount of tokens.\n   */\n  function mint(\n    address _to,\n    uint256 _amount\n  )\n    public\n    onlyMinter\n    returns (bool)\n  {\n    require(totalSupply().add(_amount) <= TOTAL_TOKENS);\n    return super.mint(_to, _amount);\n  }\n\n  function payServiceFeeUseEther() external payable {\n    uint256 _weiAmount = msg.value;\n    uint256 _fee = _getTokenAmount(_weiAmount);\n\n    require(_fee >= defaultFee);\n    require(currentCharges <= capCharges);\n    bool result = super.transfer(this, _fee);\n    if (result) {\n      currentCharges = currentCharges.add(_fee);\n    }\n\n    _forwardFunds();\n  }\n\n  function payServiceFeeUseToken(uint256 _fee) external {\n    require(_fee >= defaultFee);\n    require(currentCharges <= capCharges);\n\n    bool result = super.transfer(wallet, _fee);\n    if (result) {\n      currentCharges = currentCharges.add(_fee);\n    }\n  }\n\n  /**\n   * @dev Override to extend the way in which ether is converted to tokens.\n   * @param weiAmount Value in wei to be converted into tokens\n   * @return Number of tokens that can be purchased with the specified _weiAmount\n   */\n  function _getTokenAmount(uint256 weiAmount)\n    internal view returns (uint256)\n  {\n    return weiAmount.mul(rate);\n  }\n\n  /**\n   * @dev Determines how ETH is stored/forwarded on purchases.\n   */\n  function _forwardFunds() internal {\n    wallet.transfer(msg.value);\n  }\n}\n",
  "sourcePath": "/home/lamluong/Documents/hackathon/BOT-Token/contracts/BOTToken.sol",
  "compiler": {
    "name": "solc",
    "version": "0.4.24+commit.e67f0147.Emscripten.clang"
  },
  "schemaVersion": "2.0.1",
  "updatedAt": "2018-10-21T14:24:13.753Z"
}