{
  "contractName": "BurnableToken",
  "abi": [
    {
      "constant": false,
      "inputs": [
        {
          "name": "_spender",
          "type": "address"
        },
        {
          "name": "_value",
          "type": "uint256"
        }
      ],
      "name": "approve",
      "outputs": [
        {
          "name": "",
          "type": "bool"
        }
      ],
      "payable": false,
      "stateMutability": "nonpayable",
      "type": "function"
    },
    {
      "constant": true,
      "inputs": [],
      "name": "totalSupply",
      "outputs": [
        {
          "name": "",
          "type": "uint256"
        }
      ],
      "payable": false,
      "stateMutability": "view",
      "type": "function"
    },
    {
      "constant": false,
      "inputs": [
        {
          "name": "from",
          "type": "address"
        },
        {
          "name": "to",
          "type": "address"
        },
        {
          "name": "value",
          "type": "uint256"
        }
      ],
      "name": "transferFrom",
      "outputs": [
        {
          "name": "",
          "type": "bool"
        }
      ],
      "payable": false,
      "stateMutability": "nonpayable",
      "type": "function"
    },
    {
      "constant": false,
      "inputs": [],
      "name": "claimOwnership",
      "outputs": [],
      "payable": false,
      "stateMutability": "nonpayable",
      "type": "function"
    },
    {
      "constant": false,
      "inputs": [
        {
          "name": "_sheet",
          "type": "address"
        }
      ],
      "name": "setBalanceSheet",
      "outputs": [
        {
          "name": "",
          "type": "bool"
        }
      ],
      "payable": false,
      "stateMutability": "nonpayable",
      "type": "function"
    },
    {
      "constant": false,
      "inputs": [
        {
          "name": "_spender",
          "type": "address"
        },
        {
          "name": "_subtractedValue",
          "type": "uint256"
        }
      ],
      "name": "decreaseApproval",
      "outputs": [
        {
          "name": "",
          "type": "bool"
        }
      ],
      "payable": false,
      "stateMutability": "nonpayable",
      "type": "function"
    },
    {
      "constant": true,
      "inputs": [
        {
          "name": "_owner",
          "type": "address"
        }
      ],
      "name": "balanceOf",
      "outputs": [
        {
          "name": "balance",
          "type": "uint256"
        }
      ],
      "payable": false,
      "stateMutability": "view",
      "type": "function"
    },
    {
      "constant": false,
      "inputs": [],
      "name": "renounceOwnership",
      "outputs": [],
      "payable": false,
      "stateMutability": "nonpayable",
      "type": "function"
    },
    {
      "constant": true,
      "inputs": [],
      "name": "owner",
      "outputs": [
        {
          "name": "",
          "type": "address"
        }
      ],
      "payable": false,
      "stateMutability": "view",
      "type": "function"
    },
    {
      "constant": true,
      "inputs": [],
      "name": "isOwner",
      "outputs": [
        {
          "name": "",
          "type": "bool"
        }
      ],
      "payable": false,
      "stateMutability": "view",
      "type": "function"
    },
    {
      "constant": false,
      "inputs": [
        {
          "name": "to",
          "type": "address"
        },
        {
          "name": "value",
          "type": "uint256"
        }
      ],
      "name": "transfer",
      "outputs": [
        {
          "name": "",
          "type": "bool"
        }
      ],
      "payable": false,
      "stateMutability": "nonpayable",
      "type": "function"
    },
    {
      "constant": false,
      "inputs": [
        {
          "name": "_spender",
          "type": "address"
        },
        {
          "name": "_addedValue",
          "type": "uint256"
        }
      ],
      "name": "increaseApproval",
      "outputs": [
        {
          "name": "",
          "type": "bool"
        }
      ],
      "payable": false,
      "stateMutability": "nonpayable",
      "type": "function"
    },
    {
      "constant": true,
      "inputs": [
        {
          "name": "_owner",
          "type": "address"
        },
        {
          "name": "_spender",
          "type": "address"
        }
      ],
      "name": "allowance",
      "outputs": [
        {
          "name": "",
          "type": "uint256"
        }
      ],
      "payable": false,
      "stateMutability": "view",
      "type": "function"
    },
    {
      "constant": true,
      "inputs": [],
      "name": "pendingOwner",
      "outputs": [
        {
          "name": "",
          "type": "address"
        }
      ],
      "payable": false,
      "stateMutability": "view",
      "type": "function"
    },
    {
      "constant": false,
      "inputs": [
        {
          "name": "newOwner",
          "type": "address"
        }
      ],
      "name": "transferOwnership",
      "outputs": [],
      "payable": false,
      "stateMutability": "nonpayable",
      "type": "function"
    },
    {
      "anonymous": false,
      "inputs": [
        {
          "indexed": true,
          "name": "sheet",
          "type": "address"
        }
      ],
      "name": "BalanceSheetSet",
      "type": "event"
    },
    {
      "anonymous": false,
      "inputs": [
        {
          "indexed": true,
          "name": "previousOwner",
          "type": "address"
        }
      ],
      "name": "OwnershipRenounced",
      "type": "event"
    },
    {
      "anonymous": false,
      "inputs": [
        {
          "indexed": true,
          "name": "previousOwner",
          "type": "address"
        },
        {
          "indexed": true,
          "name": "newOwner",
          "type": "address"
        }
      ],
      "name": "OwnershipTransferred",
      "type": "event"
    },
    {
      "anonymous": false,
      "inputs": [
        {
          "indexed": true,
          "name": "from",
          "type": "address"
        },
        {
          "indexed": true,
          "name": "to",
          "type": "address"
        },
        {
          "indexed": false,
          "name": "value",
          "type": "uint256"
        }
      ],
      "name": "Transfer",
      "type": "event"
    },
    {
      "anonymous": false,
      "inputs": [
        {
          "indexed": true,
          "name": "owner",
          "type": "address"
        },
        {
          "indexed": true,
          "name": "spender",
          "type": "address"
        },
        {
          "indexed": false,
          "name": "value",
          "type": "uint256"
        }
      ],
      "name": "Approval",
      "type": "event"
    },
    {
      "constant": false,
      "inputs": [
        {
          "name": "value",
          "type": "uint256"
        }
      ],
      "name": "burn",
      "outputs": [],
      "payable": false,
      "stateMutability": "nonpayable",
      "type": "function"
    },
    {
      "constant": false,
      "inputs": [
        {
          "name": "_from",
          "type": "address"
        },
        {
          "name": "_value",
          "type": "uint256"
        }
      ],
      "name": "burnFrom",
      "outputs": [],
      "payable": false,
      "stateMutability": "nonpayable",
      "type": "function"
    }
  ],
  "bytecode": "0x608060405260008054600160a060020a03191633178155600455610ea5806100286000396000f3006080604052600436106100f05763ffffffff7c0100000000000000000000000000000000000000000000000000000000600035041663095ea7b381146100f557806318160ddd1461012d57806323b872dd1461015457806342966c681461017e5780634e71e0c81461019857806354f78dad146101ad57806366188463146101ce57806370a08231146101f2578063715018a61461021357806379cc6790146102285780638da5cb5b1461024c5780638f32d59b1461027d578063a9059cbb14610292578063d73dd623146102b6578063dd62ed3e146102da578063e30c397814610301578063f2fde38b14610316575b600080fd5b34801561010157600080fd5b50610119600160a060020a0360043516602435610337565b604080519115158252519081900360200190f35b34801561013957600080fd5b5061014261039d565b60408051918252519081900360200190f35b34801561016057600080fd5b50610119600160a060020a03600435811690602435166044356103a3565b34801561018a57600080fd5b50610196600435610620565b005b3480156101a457600080fd5b5061019661062d565b3480156101b957600080fd5b50610119600160a060020a03600435166106b5565b3480156101da57600080fd5b50610119600160a060020a03600435166024356107a1565b3480156101fe57600080fd5b50610142600160a060020a0360043516610890565b34801561021f57600080fd5b50610196610917565b34801561023457600080fd5b50610196600160a060020a036004351660243561097f565b34801561025857600080fd5b506102616109a0565b60408051600160a060020a039092168252519081900360200190f35b34801561028957600080fd5b506101196109af565b34801561029e57600080fd5b50610119600160a060020a03600435166024356109c0565b3480156102c257600080fd5b50610119600160a060020a0360043516602435610baf565b3480156102e657600080fd5b50610142600160a060020a0360043581169060243516610c48565b34801561030d57600080fd5b50610261610c73565b34801561032257600080fd5b50610196600160a060020a0360043516610c82565b336000818152600360209081526040808320600160a060020a038716808552908352818420869055815186815291519394909390927f8c5be1e5ebec7d5bd14f71427d1e84f3dd0314c0f7b2291e5b200ac8c7c3b925928290030190a350600192915050565b60045490565b6002546040805160e060020a6370a08231028152600160a060020a038681166004830152915160009392909216916370a082319160248082019260209290919082900301818787803b1580156103f857600080fd5b505af115801561040c573d6000803e3d6000fd5b505050506040513d602081101561042257600080fd5b505182111561043057600080fd5b600160a060020a038416600090815260036020908152604080832033845290915290205482111561046057600080fd5b600160a060020a038316151561047557600080fd5b600254604080517fcf8eeb7e000000000000000000000000000000000000000000000000000000008152600160a060020a038781166004830152602482018690529151919092169163cf8eeb7e91604480830192600092919082900301818387803b1580156104e357600080fd5b505af11580156104f7573d6000803e3d6000fd5b5050600254604080517f21e5383a000000000000000000000000000000000000000000000000000000008152600160a060020a0388811660048301526024820188905291519190921693506321e5383a9250604480830192600092919082900301818387803b15801561056957600080fd5b505af115801561057d573d6000803e3d6000fd5b505050600160a060020a03851660009081526003602090815260408083203384529091529020546105b591508363ffffffff610cc416565b600160a060020a03808616600081815260036020908152604080832033845282529182902094909455805186815290519287169391927fddf252ad1be2c89b69c2b068fc378daa952ba7f163c4a11628f55a4df523b3ef929181900390910190a35060019392505050565b61062a3382610cdb565b50565b600154600160a060020a0316331461064457600080fd5b60015460008054604051600160a060020a0393841693909116917f8be0079c531659141344cd1fd0a4f28419497f9722a3daafe3b4186f6b6457e091a3600180546000805473ffffffffffffffffffffffffffffffffffffffff19908116600160a060020a03841617909155169055565b60006106bf6109af565b15156106ca57600080fd5b6002805473ffffffffffffffffffffffffffffffffffffffff1916600160a060020a038481169190911791829055604080517f4e71e0c800000000000000000000000000000000000000000000000000000000815290519290911691634e71e0c89160048082019260009290919082900301818387803b15801561074d57600080fd5b505af1158015610761573d6000803e3d6000fd5b5050604051600160a060020a03851692507fa89fb8ab3845cb6919c98b54ca0d8f398df48c64ae04ed309cd7b130539badd49150600090a2506001919050565b336000908152600360209081526040808320600160a060020a03861684529091528120548083106107f557336000908152600360209081526040808320600160a060020a038816845290915281205561082a565b610805818463ffffffff610cc416565b336000908152600360209081526040808320600160a060020a03891684529091529020555b336000818152600360209081526040808320600160a060020a0389168085529083529281902054815190815290519293927f8c5be1e5ebec7d5bd14f71427d1e84f3dd0314c0f7b2291e5b200ac8c7c3b925929181900390910190a35060019392505050565b6002546040805160e060020a6370a08231028152600160a060020a038481166004830152915160009392909216916370a082319160248082019260209290919082900301818787803b1580156108e557600080fd5b505af11580156108f9573d6000803e3d6000fd5b505050506040513d602081101561090f57600080fd5b505192915050565b61091f6109af565b151561092a57600080fd5b60008054604051600160a060020a03909116917ff8df31144d9c2f0f6b59d69b8b98abd5459d07f2742c4df920b25aae33c6482091a26000805473ffffffffffffffffffffffffffffffffffffffff19169055565b6109876109af565b151561099257600080fd5b61099c8282610cdb565b5050565b600054600160a060020a031690565b600054600160a060020a0316331490565b6002546040805160e060020a6370a082310281523360048201529051600092600160a060020a0316916370a0823191602480830192602092919082900301818787803b158015610a0f57600080fd5b505af1158015610a23573d6000803e3d6000fd5b505050506040513d6020811015610a3957600080fd5b5051821115610a4757600080fd5b600160a060020a0383161515610a5c57600080fd5b600254604080517fcf8eeb7e000000000000000000000000000000000000000000000000000000008152336004820152602481018590529051600160a060020a039092169163cf8eeb7e9160448082019260009290919082900301818387803b158015610ac857600080fd5b505af1158015610adc573d6000803e3d6000fd5b5050600254604080517f21e5383a000000000000000000000000000000000000000000000000000000008152600160a060020a0388811660048301526024820188905291519190921693506321e5383a9250604480830192600092919082900301818387803b158015610b4e57600080fd5b505af1158015610b62573d6000803e3d6000fd5b5050604080518581529051600160a060020a03871693503392507fddf252ad1be2c89b69c2b068fc378daa952ba7f163c4a11628f55a4df523b3ef9181900360200190a350600192915050565b336000908152600360209081526040808320600160a060020a0386168452909152812054610be3908363ffffffff610e6016565b336000818152600360209081526040808320600160a060020a0389168085529083529281902085905580519485525191937f8c5be1e5ebec7d5bd14f71427d1e84f3dd0314c0f7b2291e5b200ac8c7c3b925929081900390910190a350600192915050565b600160a060020a03918216600090815260036020908152604080832093909416825291909152205490565b600154600160a060020a031681565b610c8a6109af565b1515610c9557600080fd5b6001805473ffffffffffffffffffffffffffffffffffffffff1916600160a060020a0392909216919091179055565b60008083831115610cd457600080fd5b5050900390565b600160a060020a0382161515610cf057600080fd5b6002546040805160e060020a6370a08231028152600160a060020a038581166004830152915191909216916370a082319160248083019260209291908290030181600087803b158015610d4257600080fd5b505af1158015610d56573d6000803e3d6000fd5b505050506040513d6020811015610d6c57600080fd5b5051811115610d7a57600080fd5b600454610d8d908263ffffffff610cc416565b6004908155600254604080517fcf8eeb7e000000000000000000000000000000000000000000000000000000008152600160a060020a0386811694820194909452602481018590529051929091169163cf8eeb7e9160448082019260009290919082900301818387803b158015610e0357600080fd5b505af1158015610e17573d6000803e3d6000fd5b505060408051848152905160009350600160a060020a03861692507fddf252ad1be2c89b69c2b068fc378daa952ba7f163c4a11628f55a4df523b3ef9181900360200190a35050565b600082820183811015610e7257600080fd5b93925050505600a165627a7a72305820d6adaf992aa4e6066f90dac6a077f881a64e79cc912552c5f244b6195aa764ca0029",
  "source": "pragma solidity ^0.4.24;\n\nimport \"./BasicToken.sol\";\n\n/**\n * @title Burnable Token\n * @dev Token that can be irreversibly burned (destroyed).\n */\ncontract BurnableToken is BasicToken {\n\n  /**\n   * @dev Burns a specific amount of tokens.\n   * @param value The amount of token to be burned.\n   */\n  function burn(uint256 value) public {\n    _burn(msg.sender, value);\n  }\n\n  function burnFrom(address _from, uint256 _value) public onlyOwner {\n    _burn(_from, _value);\n  }\n}\n",
  "sourcePath": "/home/lamlt/Documents/hackathon/BOT-Token/contracts/basic-token/BurnableToken.sol",
  "compiler": {
    "name": "solc",
    "version": "0.4.24+commit.e67f0147.Emscripten.clang"
  },
  "schemaVersion": "2.0.1",
  "updatedAt": "2018-10-22T09:43:38.627Z"
}