{
  "contractName": "Claimable",
  "abi": [
    {
      "constant": false,
      "inputs": [],
      "name": "renounceOwnership",
      "outputs": [],
      "payable": false,
      "stateMutability": "nonpayable",
      "type": "function"
    },
    {
      "constant": true,
      "inputs": [],
      "name": "owner",
      "outputs": [
        {
          "name": "",
          "type": "address"
        }
      ],
      "payable": false,
      "stateMutability": "view",
      "type": "function"
    },
    {
      "constant": true,
      "inputs": [],
      "name": "isOwner",
      "outputs": [
        {
          "name": "",
          "type": "bool"
        }
      ],
      "payable": false,
      "stateMutability": "view",
      "type": "function"
    },
    {
      "constant": true,
      "inputs": [],
      "name": "pendingOwner",
      "outputs": [
        {
          "name": "",
          "type": "address"
        }
      ],
      "payable": false,
      "stateMutability": "view",
      "type": "function"
    },
    {
      "anonymous": false,
      "inputs": [
        {
          "indexed": true,
          "name": "previousOwner",
          "type": "address"
        }
      ],
      "name": "OwnershipRenounced",
      "type": "event"
    },
    {
      "anonymous": false,
      "inputs": [
        {
          "indexed": true,
          "name": "previousOwner",
          "type": "address"
        },
        {
          "indexed": true,
          "name": "newOwner",
          "type": "address"
        }
      ],
      "name": "OwnershipTransferred",
      "type": "event"
    },
    {
      "constant": false,
      "inputs": [
        {
          "name": "newOwner",
          "type": "address"
        }
      ],
      "name": "transferOwnership",
      "outputs": [],
      "payable": false,
      "stateMutability": "nonpayable",
      "type": "function"
    },
    {
      "constant": false,
      "inputs": [],
      "name": "claimOwnership",
      "outputs": [],
      "payable": false,
      "stateMutability": "nonpayable",
      "type": "function"
    }
  ],
  "bytecode": "0x608060405260008054600160a060020a031916331790556102c5806100256000396000f3006080604052600436106100775763ffffffff7c01000000000000000000000000000000000000000000000000000000006000350416634e71e0c8811461007c578063715018a6146100935780638da5cb5b146100a85780638f32d59b146100d9578063e30c397814610102578063f2fde38b14610117575b600080fd5b34801561008857600080fd5b50610091610138565b005b34801561009f57600080fd5b506100916101c0565b3480156100b457600080fd5b506100bd610228565b60408051600160a060020a039092168252519081900360200190f35b3480156100e557600080fd5b506100ee610237565b604080519115158252519081900360200190f35b34801561010e57600080fd5b506100bd610248565b34801561012357600080fd5b50610091600160a060020a0360043516610257565b600154600160a060020a0316331461014f57600080fd5b60015460008054604051600160a060020a0393841693909116917f8be0079c531659141344cd1fd0a4f28419497f9722a3daafe3b4186f6b6457e091a3600180546000805473ffffffffffffffffffffffffffffffffffffffff19908116600160a060020a03841617909155169055565b6101c8610237565b15156101d357600080fd5b60008054604051600160a060020a03909116917ff8df31144d9c2f0f6b59d69b8b98abd5459d07f2742c4df920b25aae33c6482091a26000805473ffffffffffffffffffffffffffffffffffffffff19169055565b600054600160a060020a031690565b600054600160a060020a0316331490565b600154600160a060020a031681565b61025f610237565b151561026a57600080fd5b6001805473ffffffffffffffffffffffffffffffffffffffff1916600160a060020a03929092169190911790555600a165627a7a72305820f8f69135c2d3e2421f67f855bdade69655491ce0dca690a527f5a632a49583c90029",
  "source": "pragma solidity ^0.4.24;\n\n\nimport \"./Ownable.sol\";\n\n\n/**\n * @title Claimable\n * @dev Extension for the Ownable contract, where the ownership needs to be claimed.\n * This allows the new owner to accept the transfer.\n */\ncontract Claimable is Ownable {\n  address public pendingOwner;\n\n  /**\n   * @dev Modifier throws if called by any account other than the pendingOwner.\n   */\n  modifier onlyPendingOwner() {\n    require(msg.sender == pendingOwner);\n    _;\n  }\n\n  /**\n   * @dev Allows the current owner to set the pendingOwner address.\n   * @param newOwner The address to transfer ownership to.\n   */\n  function transferOwnership(address newOwner) onlyOwner public {\n    pendingOwner = newOwner;\n  }\n\n  /**\n   * @dev Allows the pendingOwner address to finalize the transfer.\n   */\n  function claimOwnership() onlyPendingOwner public {\n    emit OwnershipTransferred(owner, pendingOwner);\n    owner = pendingOwner;\n    pendingOwner = address(0);\n  }\n}\n",
  "sourcePath": "/home/lamluong/Documents/hackathon/BOT-Token/contracts/openzeppelin/ownership/Claimable.sol",
  "compiler": {
    "name": "solc",
    "version": "0.4.24+commit.e67f0147.Emscripten.clang"
  },
  "schemaVersion": "2.0.1",
  "updatedAt": "2018-10-21T07:39:47.352Z"
}