{
  "contractName": "PausableToken",
  "abi": [
    {
      "constant": true,
      "inputs": [],
      "name": "totalSupply",
      "outputs": [
        {
          "name": "",
          "type": "uint256"
        }
      ],
      "payable": false,
      "stateMutability": "view",
      "type": "function"
    },
    {
      "constant": false,
      "inputs": [],
      "name": "unpause",
      "outputs": [],
      "payable": false,
      "stateMutability": "nonpayable",
      "type": "function"
    },
    {
      "constant": false,
      "inputs": [],
      "name": "claimOwnership",
      "outputs": [],
      "payable": false,
      "stateMutability": "nonpayable",
      "type": "function"
    },
    {
      "constant": false,
      "inputs": [
        {
          "name": "_sheet",
          "type": "address"
        }
      ],
      "name": "setBalanceSheet",
      "outputs": [
        {
          "name": "",
          "type": "bool"
        }
      ],
      "payable": false,
      "stateMutability": "nonpayable",
      "type": "function"
    },
    {
      "constant": true,
      "inputs": [],
      "name": "paused",
      "outputs": [
        {
          "name": "",
          "type": "bool"
        }
      ],
      "payable": false,
      "stateMutability": "view",
      "type": "function"
    },
    {
      "constant": true,
      "inputs": [
        {
          "name": "_owner",
          "type": "address"
        }
      ],
      "name": "balanceOf",
      "outputs": [
        {
          "name": "balance",
          "type": "uint256"
        }
      ],
      "payable": false,
      "stateMutability": "view",
      "type": "function"
    },
    {
      "constant": false,
      "inputs": [],
      "name": "renounceOwnership",
      "outputs": [],
      "payable": false,
      "stateMutability": "nonpayable",
      "type": "function"
    },
    {
      "constant": false,
      "inputs": [],
      "name": "pause",
      "outputs": [],
      "payable": false,
      "stateMutability": "nonpayable",
      "type": "function"
    },
    {
      "constant": true,
      "inputs": [],
      "name": "owner",
      "outputs": [
        {
          "name": "",
          "type": "address"
        }
      ],
      "payable": false,
      "stateMutability": "view",
      "type": "function"
    },
    {
      "constant": true,
      "inputs": [],
      "name": "isOwner",
      "outputs": [
        {
          "name": "",
          "type": "bool"
        }
      ],
      "payable": false,
      "stateMutability": "view",
      "type": "function"
    },
    {
      "constant": true,
      "inputs": [
        {
          "name": "_owner",
          "type": "address"
        },
        {
          "name": "_spender",
          "type": "address"
        }
      ],
      "name": "allowance",
      "outputs": [
        {
          "name": "",
          "type": "uint256"
        }
      ],
      "payable": false,
      "stateMutability": "view",
      "type": "function"
    },
    {
      "constant": true,
      "inputs": [],
      "name": "pendingOwner",
      "outputs": [
        {
          "name": "",
          "type": "address"
        }
      ],
      "payable": false,
      "stateMutability": "view",
      "type": "function"
    },
    {
      "constant": false,
      "inputs": [
        {
          "name": "newOwner",
          "type": "address"
        }
      ],
      "name": "transferOwnership",
      "outputs": [],
      "payable": false,
      "stateMutability": "nonpayable",
      "type": "function"
    },
    {
      "anonymous": false,
      "inputs": [],
      "name": "Paused",
      "type": "event"
    },
    {
      "anonymous": false,
      "inputs": [],
      "name": "Unpaused",
      "type": "event"
    },
    {
      "anonymous": false,
      "inputs": [
        {
          "indexed": true,
          "name": "sheet",
          "type": "address"
        }
      ],
      "name": "BalanceSheetSet",
      "type": "event"
    },
    {
      "anonymous": false,
      "inputs": [
        {
          "indexed": true,
          "name": "previousOwner",
          "type": "address"
        }
      ],
      "name": "OwnershipRenounced",
      "type": "event"
    },
    {
      "anonymous": false,
      "inputs": [
        {
          "indexed": true,
          "name": "previousOwner",
          "type": "address"
        },
        {
          "indexed": true,
          "name": "newOwner",
          "type": "address"
        }
      ],
      "name": "OwnershipTransferred",
      "type": "event"
    },
    {
      "anonymous": false,
      "inputs": [
        {
          "indexed": true,
          "name": "from",
          "type": "address"
        },
        {
          "indexed": true,
          "name": "to",
          "type": "address"
        },
        {
          "indexed": false,
          "name": "value",
          "type": "uint256"
        }
      ],
      "name": "Transfer",
      "type": "event"
    },
    {
      "anonymous": false,
      "inputs": [
        {
          "indexed": true,
          "name": "owner",
          "type": "address"
        },
        {
          "indexed": true,
          "name": "spender",
          "type": "address"
        },
        {
          "indexed": false,
          "name": "value",
          "type": "uint256"
        }
      ],
      "name": "Approval",
      "type": "event"
    },
    {
      "constant": false,
      "inputs": [
        {
          "name": "to",
          "type": "address"
        },
        {
          "name": "value",
          "type": "uint256"
        }
      ],
      "name": "transfer",
      "outputs": [
        {
          "name": "",
          "type": "bool"
        }
      ],
      "payable": false,
      "stateMutability": "nonpayable",
      "type": "function"
    },
    {
      "constant": false,
      "inputs": [
        {
          "name": "from",
          "type": "address"
        },
        {
          "name": "to",
          "type": "address"
        },
        {
          "name": "value",
          "type": "uint256"
        }
      ],
      "name": "transferFrom",
      "outputs": [
        {
          "name": "",
          "type": "bool"
        }
      ],
      "payable": false,
      "stateMutability": "nonpayable",
      "type": "function"
    },
    {
      "constant": false,
      "inputs": [
        {
          "name": "spender",
          "type": "address"
        },
        {
          "name": "value",
          "type": "uint256"
        }
      ],
      "name": "approve",
      "outputs": [
        {
          "name": "",
          "type": "bool"
        }
      ],
      "payable": false,
      "stateMutability": "nonpayable",
      "type": "function"
    },
    {
      "constant": false,
      "inputs": [
        {
          "name": "spender",
          "type": "address"
        },
        {
          "name": "addedValue",
          "type": "uint256"
        }
      ],
      "name": "increaseApproval",
      "outputs": [
        {
          "name": "success",
          "type": "bool"
        }
      ],
      "payable": false,
      "stateMutability": "nonpayable",
      "type": "function"
    },
    {
      "constant": false,
      "inputs": [
        {
          "name": "spender",
          "type": "address"
        },
        {
          "name": "subtractedValue",
          "type": "uint256"
        }
      ],
      "name": "decreaseApproval",
      "outputs": [
        {
          "name": "success",
          "type": "bool"
        }
      ],
      "payable": false,
      "stateMutability": "nonpayable",
      "type": "function"
    }
  ],
  "bytecode": "0x60806040526005805460ff1916905560008054600160a060020a03191633178155600455610e99806100326000396000f3006080604052600436106100fb5763ffffffff7c0100000000000000000000000000000000000000000000000000000000600035041663095ea7b3811461010057806318160ddd1461013857806323b872dd1461015f5780633f4ba83a146101895780634e71e0c8146101a057806354f78dad146101b55780635c975abb146101d657806366188463146101eb57806370a082311461020f578063715018a6146102305780638456cb59146102455780638da5cb5b1461025a5780638f32d59b1461028b578063a9059cbb146102a0578063d73dd623146102c4578063dd62ed3e146102e8578063e30c39781461030f578063f2fde38b14610324575b600080fd5b34801561010c57600080fd5b50610124600160a060020a0360043516602435610345565b604080519115158252519081900360200190f35b34801561014457600080fd5b5061014d610369565b60408051918252519081900360200190f35b34801561016b57600080fd5b50610124600160a060020a036004358116906024351660443561036f565b34801561019557600080fd5b5061019e610395565b005b3480156101ac57600080fd5b5061019e6103ee565b3480156101c157600080fd5b50610124600160a060020a0360043516610476565b3480156101e257600080fd5b50610124610562565b3480156101f757600080fd5b50610124600160a060020a036004351660243561056b565b34801561021b57600080fd5b5061014d600160a060020a0360043516610588565b34801561023c57600080fd5b5061019e610625565b34801561025157600080fd5b5061019e61068d565b34801561026657600080fd5b5061026f6106e8565b60408051600160a060020a039092168252519081900360200190f35b34801561029757600080fd5b506101246106f7565b3480156102ac57600080fd5b50610124600160a060020a0360043516602435610708565b3480156102d057600080fd5b50610124600160a060020a0360043516602435610725565b3480156102f457600080fd5b5061014d600160a060020a0360043581169060243516610742565b34801561031b57600080fd5b5061026f61076d565b34801561033057600080fd5b5061019e600160a060020a036004351661077c565b60055460009060ff161561035857600080fd5b61036283836107be565b9392505050565b60045490565b60055460009060ff161561038257600080fd5b61038d848484610824565b949350505050565b61039d6106f7565b15156103a857600080fd5b60055460ff1615156103b957600080fd5b6005805460ff191690556040517fa45f47fdea8a1efdd9029a5691c7f759c32b7c698632b563573e155625d1693390600090a1565b600154600160a060020a0316331461040557600080fd5b60015460008054604051600160a060020a0393841693909116917f8be0079c531659141344cd1fd0a4f28419497f9722a3daafe3b4186f6b6457e091a3600180546000805473ffffffffffffffffffffffffffffffffffffffff19908116600160a060020a03841617909155169055565b60006104806106f7565b151561048b57600080fd5b6002805473ffffffffffffffffffffffffffffffffffffffff1916600160a060020a038481169190911791829055604080517f4e71e0c800000000000000000000000000000000000000000000000000000000815290519290911691634e71e0c89160048082019260009290919082900301818387803b15801561050e57600080fd5b505af1158015610522573d6000803e3d6000fd5b5050604051600160a060020a03851692507fa89fb8ab3845cb6919c98b54ca0d8f398df48c64ae04ed309cd7b130539badd49150600090a2506001919050565b60055460ff1690565b60055460009060ff161561057e57600080fd5b6103628383610ab7565b600254604080517f70a08231000000000000000000000000000000000000000000000000000000008152600160a060020a038481166004830152915160009392909216916370a082319160248082019260209290919082900301818787803b1580156105f357600080fd5b505af1158015610607573d6000803e3d6000fd5b505050506040513d602081101561061d57600080fd5b505192915050565b61062d6106f7565b151561063857600080fd5b60008054604051600160a060020a03909116917ff8df31144d9c2f0f6b59d69b8b98abd5459d07f2742c4df920b25aae33c6482091a26000805473ffffffffffffffffffffffffffffffffffffffff19169055565b6106956106f7565b15156106a057600080fd5b60055460ff16156106b057600080fd5b6005805460ff191660011790556040517f9e87fac88ff661f02d44f95383c817fece4bce600a3dab7a54406878b965e75290600090a1565b600054600160a060020a031690565b600054600160a060020a0316331490565b60055460009060ff161561071b57600080fd5b6103628383610ba6565b60055460009060ff161561073857600080fd5b6103628383610dab565b600160a060020a03918216600090815260036020908152604080832093909416825291909152205490565b600154600160a060020a031681565b6107846106f7565b151561078f57600080fd5b6001805473ffffffffffffffffffffffffffffffffffffffff1916600160a060020a0392909216919091179055565b336000818152600360209081526040808320600160a060020a038716808552908352818420869055815186815291519394909390927f8c5be1e5ebec7d5bd14f71427d1e84f3dd0314c0f7b2291e5b200ac8c7c3b925928290030190a350600192915050565b600254604080517f70a08231000000000000000000000000000000000000000000000000000000008152600160a060020a038681166004830152915160009392909216916370a082319160248082019260209290919082900301818787803b15801561088f57600080fd5b505af11580156108a3573d6000803e3d6000fd5b505050506040513d60208110156108b957600080fd5b50518211156108c757600080fd5b600160a060020a03841660009081526003602090815260408083203384529091529020548211156108f757600080fd5b600160a060020a038316151561090c57600080fd5b600254604080517fcf8eeb7e000000000000000000000000000000000000000000000000000000008152600160a060020a038781166004830152602482018690529151919092169163cf8eeb7e91604480830192600092919082900301818387803b15801561097a57600080fd5b505af115801561098e573d6000803e3d6000fd5b5050600254604080517f21e5383a000000000000000000000000000000000000000000000000000000008152600160a060020a0388811660048301526024820188905291519190921693506321e5383a9250604480830192600092919082900301818387803b158015610a0057600080fd5b505af1158015610a14573d6000803e3d6000fd5b505050600160a060020a0385166000908152600360209081526040808320338452909152902054610a4c91508363ffffffff610e4416565b600160a060020a03808616600081815260036020908152604080832033845282529182902094909455805186815290519287169391927fddf252ad1be2c89b69c2b068fc378daa952ba7f163c4a11628f55a4df523b3ef929181900390910190a35060019392505050565b336000908152600360209081526040808320600160a060020a0386168452909152812054808310610b0b57336000908152600360209081526040808320600160a060020a0388168452909152812055610b40565b610b1b818463ffffffff610e4416565b336000908152600360209081526040808320600160a060020a03891684529091529020555b336000818152600360209081526040808320600160a060020a0389168085529083529281902054815190815290519293927f8c5be1e5ebec7d5bd14f71427d1e84f3dd0314c0f7b2291e5b200ac8c7c3b925929181900390910190a35060019392505050565b600254604080517f70a082310000000000000000000000000000000000000000000000000000000081523360048201529051600092600160a060020a0316916370a0823191602480830192602092919082900301818787803b158015610c0b57600080fd5b505af1158015610c1f573d6000803e3d6000fd5b505050506040513d6020811015610c3557600080fd5b5051821115610c4357600080fd5b600160a060020a0383161515610c5857600080fd5b600254604080517fcf8eeb7e000000000000000000000000000000000000000000000000000000008152336004820152602481018590529051600160a060020a039092169163cf8eeb7e9160448082019260009290919082900301818387803b158015610cc457600080fd5b505af1158015610cd8573d6000803e3d6000fd5b5050600254604080517f21e5383a000000000000000000000000000000000000000000000000000000008152600160a060020a0388811660048301526024820188905291519190921693506321e5383a9250604480830192600092919082900301818387803b158015610d4a57600080fd5b505af1158015610d5e573d6000803e3d6000fd5b5050604080518581529051600160a060020a03871693503392507fddf252ad1be2c89b69c2b068fc378daa952ba7f163c4a11628f55a4df523b3ef9181900360200190a350600192915050565b336000908152600360209081526040808320600160a060020a0386168452909152812054610ddf908363ffffffff610e5b16565b336000818152600360209081526040808320600160a060020a0389168085529083529281902085905580519485525191937f8c5be1e5ebec7d5bd14f71427d1e84f3dd0314c0f7b2291e5b200ac8c7c3b925929081900390910190a350600192915050565b60008083831115610e5457600080fd5b5050900390565b60008282018381101561036257600080fd00a165627a7a7230582076ef94b3bd04aa1aa9ca420f502def9745e3eb6531b5588cab65335660eceed50029",
  "source": "pragma solidity ^0.4.24;\n\nimport \"../openzeppelin/lifecycle/Pausable.sol\";\nimport \"./BasicToken.sol\";\n/**\n * @title Pausable token\n * @dev ERC20 modified with pausable transfers.\n **/\ncontract PausableToken is BasicToken, Pausable {\n\n  function transfer(\n    address to,\n    uint256 value\n  )\n    public\n    whenNotPaused\n    returns (bool)\n  {\n    return super.transfer(to, value);\n  }\n\n  function transferFrom(\n    address from,\n    address to,\n    uint256 value\n  )\n    public\n    whenNotPaused\n    returns (bool)\n  {\n    return super.transferFrom(from, to, value);\n  }\n\n  function approve(\n    address spender,\n    uint256 value\n  )\n    public\n    whenNotPaused\n    returns (bool)\n  {\n    return super.approve(spender, value);\n  }\n\n  function increaseApproval(\n    address spender,\n    uint addedValue\n  )\n    public\n    whenNotPaused\n    returns (bool success)\n  {\n    return super.increaseApproval(spender, addedValue);\n  }\n\n  function decreaseApproval(\n    address spender,\n    uint subtractedValue\n  )\n    public\n    whenNotPaused\n    returns (bool success)\n  {\n    return super.decreaseApproval(spender, subtractedValue);\n  }\n}\n",
  "sourcePath": "/home/lamluong/Documents/hackathon/BOT-Token/contracts/basic-token/PausableToken.sol",
  "compiler": {
    "name": "solc",
    "version": "0.4.24+commit.e67f0147.Emscripten.clang"
  },
  "schemaVersion": "2.0.1",
  "updatedAt": "2018-10-21T07:39:47.349Z"
}